{
  "_format": "hh-sol-artifact-1",
  "contractName": "ERC721Basic",
  "sourceName": "contracts/ERC721Basic.sol",
  "abi": [
    {
      "inputs": [],
      "stateMutability": "nonpayable",
      "type": "constructor"
    },
    {
      "anonymous": false,
      "inputs": [
        {
          "indexed": true,
          "internalType": "address",
          "name": "owner",
          "type": "address"
        },
        {
          "indexed": true,
          "internalType": "address",
          "name": "approved",
          "type": "address"
        },
        {
          "indexed": true,
          "internalType": "uint256",
          "name": "tokenId",
          "type": "uint256"
        }
      ],
      "name": "Approval",
      "type": "event"
    },
    {
      "anonymous": false,
      "inputs": [
        {
          "indexed": true,
          "internalType": "address",
          "name": "owner",
          "type": "address"
        },
        {
          "indexed": true,
          "internalType": "address",
          "name": "operator",
          "type": "address"
        },
        {
          "indexed": false,
          "internalType": "bool",
          "name": "approved",
          "type": "bool"
        }
      ],
      "name": "ApprovalForAll",
      "type": "event"
    },
    {
      "anonymous": false,
      "inputs": [
        {
          "indexed": true,
          "internalType": "address",
          "name": "previousOwner",
          "type": "address"
        },
        {
          "indexed": true,
          "internalType": "address",
          "name": "newOwner",
          "type": "address"
        }
      ],
      "name": "OwnershipTransferred",
      "type": "event"
    },
    {
      "anonymous": false,
      "inputs": [
        {
          "indexed": true,
          "internalType": "address",
          "name": "from",
          "type": "address"
        },
        {
          "indexed": true,
          "internalType": "address",
          "name": "to",
          "type": "address"
        },
        {
          "indexed": true,
          "internalType": "uint256",
          "name": "tokenId",
          "type": "uint256"
        }
      ],
      "name": "Transfer",
      "type": "event"
    },
    {
      "inputs": [],
      "name": "MAX_PUBLIC_MINT",
      "outputs": [
        {
          "internalType": "uint256",
          "name": "",
          "type": "uint256"
        }
      ],
      "stateMutability": "view",
      "type": "function"
    },
    {
      "inputs": [],
      "name": "MAX_SUPPLY",
      "outputs": [
        {
          "internalType": "uint256",
          "name": "",
          "type": "uint256"
        }
      ],
      "stateMutability": "view",
      "type": "function"
    },
    {
      "inputs": [],
      "name": "PRICE_PER_TOKEN",
      "outputs": [
        {
          "internalType": "uint256",
          "name": "",
          "type": "uint256"
        }
      ],
      "stateMutability": "view",
      "type": "function"
    },
    {
      "inputs": [],
      "name": "PROVENANCE",
      "outputs": [
        {
          "internalType": "string",
          "name": "",
          "type": "string"
        }
      ],
      "stateMutability": "view",
      "type": "function"
    },
    {
      "inputs": [
        {
          "internalType": "address",
          "name": "to",
          "type": "address"
        },
        {
          "internalType": "uint256",
          "name": "tokenId",
          "type": "uint256"
        }
      ],
      "name": "approve",
      "outputs": [],
      "stateMutability": "nonpayable",
      "type": "function"
    },
    {
      "inputs": [
        {
          "internalType": "address",
          "name": "owner",
          "type": "address"
        }
      ],
      "name": "balanceOf",
      "outputs": [
        {
          "internalType": "uint256",
          "name": "",
          "type": "uint256"
        }
      ],
      "stateMutability": "view",
      "type": "function"
    },
    {
      "inputs": [
        {
          "internalType": "uint256",
          "name": "tokenId",
          "type": "uint256"
        }
      ],
      "name": "getApproved",
      "outputs": [
        {
          "internalType": "address",
          "name": "",
          "type": "address"
        }
      ],
      "stateMutability": "view",
      "type": "function"
    },
    {
      "inputs": [],
      "name": "isAllowListActive",
      "outputs": [
        {
          "internalType": "bool",
          "name": "",
          "type": "bool"
        }
      ],
      "stateMutability": "view",
      "type": "function"
    },
    {
      "inputs": [
        {
          "internalType": "address",
          "name": "owner",
          "type": "address"
        },
        {
          "internalType": "address",
          "name": "operator",
          "type": "address"
        }
      ],
      "name": "isApprovedForAll",
      "outputs": [
        {
          "internalType": "bool",
          "name": "",
          "type": "bool"
        }
      ],
      "stateMutability": "view",
      "type": "function"
    },
    {
      "inputs": [
        {
          "internalType": "uint256",
          "name": "numberOfTokens",
          "type": "uint256"
        }
      ],
      "name": "mint",
      "outputs": [],
      "stateMutability": "payable",
      "type": "function"
    },
    {
      "inputs": [
        {
          "internalType": "uint8",
          "name": "numberOfTokens",
          "type": "uint8"
        }
      ],
      "name": "mintAllowList",
      "outputs": [],
      "stateMutability": "payable",
      "type": "function"
    },
    {
      "inputs": [],
      "name": "name",
      "outputs": [
        {
          "internalType": "string",
          "name": "",
          "type": "string"
        }
      ],
      "stateMutability": "view",
      "type": "function"
    },
    {
      "inputs": [
        {
          "internalType": "address",
          "name": "addr",
          "type": "address"
        }
      ],
      "name": "numAvailableToMint",
      "outputs": [
        {
          "internalType": "uint8",
          "name": "",
          "type": "uint8"
        }
      ],
      "stateMutability": "view",
      "type": "function"
    },
    {
      "inputs": [],
      "name": "owner",
      "outputs": [
        {
          "internalType": "address",
          "name": "",
          "type": "address"
        }
      ],
      "stateMutability": "view",
      "type": "function"
    },
    {
      "inputs": [
        {
          "internalType": "uint256",
          "name": "tokenId",
          "type": "uint256"
        }
      ],
      "name": "ownerOf",
      "outputs": [
        {
          "internalType": "address",
          "name": "",
          "type": "address"
        }
      ],
      "stateMutability": "view",
      "type": "function"
    },
    {
      "inputs": [],
      "name": "renounceOwnership",
      "outputs": [],
      "stateMutability": "nonpayable",
      "type": "function"
    },
    {
      "inputs": [
        {
          "internalType": "uint256",
          "name": "n",
          "type": "uint256"
        }
      ],
      "name": "reserve",
      "outputs": [],
      "stateMutability": "nonpayable",
      "type": "function"
    },
    {
      "inputs": [
        {
          "internalType": "address",
          "name": "from",
          "type": "address"
        },
        {
          "internalType": "address",
          "name": "to",
          "type": "address"
        },
        {
          "internalType": "uint256",
          "name": "tokenId",
          "type": "uint256"
        }
      ],
      "name": "safeTransferFrom",
      "outputs": [],
      "stateMutability": "nonpayable",
      "type": "function"
    },
    {
      "inputs": [
        {
          "internalType": "address",
          "name": "from",
          "type": "address"
        },
        {
          "internalType": "address",
          "name": "to",
          "type": "address"
        },
        {
          "internalType": "uint256",
          "name": "tokenId",
          "type": "uint256"
        },
        {
          "internalType": "bytes",
          "name": "data",
          "type": "bytes"
        }
      ],
      "name": "safeTransferFrom",
      "outputs": [],
      "stateMutability": "nonpayable",
      "type": "function"
    },
    {
      "inputs": [],
      "name": "saleIsActive",
      "outputs": [
        {
          "internalType": "bool",
          "name": "",
          "type": "bool"
        }
      ],
      "stateMutability": "view",
      "type": "function"
    },
    {
      "inputs": [
        {
          "internalType": "address[]",
          "name": "addresses",
          "type": "address[]"
        },
        {
          "internalType": "uint8",
          "name": "numAllowedToMint",
          "type": "uint8"
        }
      ],
      "name": "setAllowList",
      "outputs": [],
      "stateMutability": "nonpayable",
      "type": "function"
    },
    {
      "inputs": [
        {
          "internalType": "address",
          "name": "operator",
          "type": "address"
        },
        {
          "internalType": "bool",
          "name": "approved",
          "type": "bool"
        }
      ],
      "name": "setApprovalForAll",
      "outputs": [],
      "stateMutability": "nonpayable",
      "type": "function"
    },
    {
      "inputs": [
        {
          "internalType": "string",
          "name": "baseURI_",
          "type": "string"
        }
      ],
      "name": "setBaseURI",
      "outputs": [],
      "stateMutability": "nonpayable",
      "type": "function"
    },
    {
      "inputs": [
        {
          "internalType": "bool",
          "name": "_isAllowListActive",
          "type": "bool"
        }
      ],
      "name": "setIsAllowListActive",
      "outputs": [],
      "stateMutability": "nonpayable",
      "type": "function"
    },
    {
      "inputs": [
        {
          "internalType": "string",
          "name": "provenance",
          "type": "string"
        }
      ],
      "name": "setProvenance",
      "outputs": [],
      "stateMutability": "nonpayable",
      "type": "function"
    },
    {
      "inputs": [
        {
          "internalType": "bool",
          "name": "newState",
          "type": "bool"
        }
      ],
      "name": "setSaleState",
      "outputs": [],
      "stateMutability": "nonpayable",
      "type": "function"
    },
    {
      "inputs": [
        {
          "internalType": "bytes4",
          "name": "interfaceId",
          "type": "bytes4"
        }
      ],
      "name": "supportsInterface",
      "outputs": [
        {
          "internalType": "bool",
          "name": "",
          "type": "bool"
        }
      ],
      "stateMutability": "view",
      "type": "function"
    },
    {
      "inputs": [],
      "name": "symbol",
      "outputs": [
        {
          "internalType": "string",
          "name": "",
          "type": "string"
        }
      ],
      "stateMutability": "view",
      "type": "function"
    },
    {
      "inputs": [
        {
          "internalType": "uint256",
          "name": "index",
          "type": "uint256"
        }
      ],
      "name": "tokenByIndex",
      "outputs": [
        {
          "internalType": "uint256",
          "name": "",
          "type": "uint256"
        }
      ],
      "stateMutability": "view",
      "type": "function"
    },
    {
      "inputs": [
        {
          "internalType": "address",
          "name": "owner",
          "type": "address"
        },
        {
          "internalType": "uint256",
          "name": "index",
          "type": "uint256"
        }
      ],
      "name": "tokenOfOwnerByIndex",
      "outputs": [
        {
          "internalType": "uint256",
          "name": "",
          "type": "uint256"
        }
      ],
      "stateMutability": "view",
      "type": "function"
    },
    {
      "inputs": [
        {
          "internalType": "uint256",
          "name": "tokenId",
          "type": "uint256"
        }
      ],
      "name": "tokenURI",
      "outputs": [
        {
          "internalType": "string",
          "name": "",
          "type": "string"
        }
      ],
      "stateMutability": "view",
      "type": "function"
    },
    {
      "inputs": [],
      "name": "totalSupply",
      "outputs": [
        {
          "internalType": "uint256",
          "name": "",
          "type": "uint256"
        }
      ],
      "stateMutability": "view",
      "type": "function"
    },
    {
      "inputs": [
        {
          "internalType": "address",
          "name": "from",
          "type": "address"
        },
        {
          "internalType": "address",
          "name": "to",
          "type": "address"
        },
        {
          "internalType": "uint256",
          "name": "tokenId",
          "type": "uint256"
        }
      ],
      "name": "transferFrom",
      "outputs": [],
      "stateMutability": "nonpayable",
      "type": "function"
    },
    {
      "inputs": [
        {
          "internalType": "address",
          "name": "newOwner",
          "type": "address"
        }
      ],
      "name": "transferOwnership",
      "outputs": [],
      "stateMutability": "nonpayable",
      "type": "function"
    },
    {
      "inputs": [],
      "name": "withdraw",
      "outputs": [],
      "stateMutability": "nonpayable",
      "type": "function"
    }
  ],
  "bytecode": "0x60806040526000600c60006101000a81548160ff0219169083151502179055506000600e60006101000a81548160ff0219169083151502179055503480156200004757600080fd5b506040518060400160405280600781526020017f446f6f646c6573000000000000000000000000000000000000000000000000008152506040518060400160405280600681526020017f444f4f444c4500000000000000000000000000000000000000000000000000008152508160009080519060200190620000cc929190620001dc565b508060019080519060200190620000e5929190620001dc565b50505062000108620000fc6200010e60201b60201c565b6200011660201b60201c565b620002f1565b600033905090565b6000600a60009054906101000a900473ffffffffffffffffffffffffffffffffffffffff16905081600a60006101000a81548173ffffffffffffffffffffffffffffffffffffffff021916908373ffffffffffffffffffffffffffffffffffffffff1602179055508173ffffffffffffffffffffffffffffffffffffffff168173ffffffffffffffffffffffffffffffffffffffff167f8be0079c531659141344cd1fd0a4f28419497f9722a3daafe3b4186f6b6457e060405160405180910390a35050565b828054620001ea90620002bb565b90600052602060002090601f0160209004810192826200020e57600085556200025a565b82601f106200022957805160ff19168380011785556200025a565b828001600101855582156200025a579182015b82811115620002595782518255916020019190600101906200023c565b5b5090506200026991906200026d565b5090565b5b80821115620002885760008160009055506001016200026e565b5090565b7f4e487b7100000000000000000000000000000000000000000000000000000000600052602260045260246000fd5b60006002820490506001821680620002d457607f821691505b60208210811415620002eb57620002ea6200028c565b5b50919050565b61421180620003016000396000f3fe6080604052600436106102045760003560e01c8063715018a611610118578063b88d4fde116100a0578063ddff5b1c1161006f578063ddff5b1c14610758578063e985e9c514610774578063eb8d2444146107b1578063f2fde38b146107dc578063ffe630b51461080557610204565b8063b88d4fde1461068c578063c04a2836146106b5578063c4e37095146106f2578063c87b56dd1461071b57610204565b8063833b9499116100e7578063833b9499146105c65780638da5cb5b146105f157806395d89b411461061c578063a0712d6814610647578063a22cb4651461066357610204565b8063715018a614610534578063718bc4af1461054b578063819b25ba146105745780638295784d1461059d57610204565b806332cb6b0c1161019b57806355f804b31161016a57806355f804b31461043b5780636352211e146104645780636373a6b1146104a157806365f13097146104cc57806370a08231146104f757610204565b806332cb6b0c146103935780633ccfd60b146103be57806342842e0e146103d55780634f6ccce7146103fe57610204565b806318160ddd116101d757806318160ddd146102d757806323b872dd1461030257806329fc6bae1461032b5780632f745c591461035657610204565b806301ffc9a71461020957806306fdde0314610246578063081812fc14610271578063095ea7b3146102ae575b600080fd5b34801561021557600080fd5b50610230600480360381019061022b9190612b56565b61082e565b60405161023d9190612b9e565b60405180910390f35b34801561025257600080fd5b5061025b610840565b6040516102689190612c52565b60405180910390f35b34801561027d57600080fd5b5061029860048036038101906102939190612caa565b6108d2565b6040516102a59190612d18565b60405180910390f35b3480156102ba57600080fd5b506102d560048036038101906102d09190612d5f565b610918565b005b3480156102e357600080fd5b506102ec610a30565b6040516102f99190612dae565b60405180910390f35b34801561030e57600080fd5b5061032960048036038101906103249190612dc9565b610a3d565b005b34801561033757600080fd5b50610340610a9d565b60405161034d9190612b9e565b60405180910390f35b34801561036257600080fd5b5061037d60048036038101906103789190612d5f565b610ab0565b60405161038a9190612dae565b60405180910390f35b34801561039f57600080fd5b506103a8610b55565b6040516103b59190612dae565b60405180910390f35b3480156103ca57600080fd5b506103d3610b5b565b005b3480156103e157600080fd5b506103fc60048036038101906103f79190612dc9565b610bb2565b005b34801561040a57600080fd5b5061042560048036038101906104209190612caa565b610bd2565b6040516104329190612dae565b60405180910390f35b34801561044757600080fd5b50610462600480360381019061045d9190612f51565b610c43565b005b34801561047057600080fd5b5061048b60048036038101906104869190612caa565b610c65565b6040516104989190612d18565b60405180910390f35b3480156104ad57600080fd5b506104b6610d17565b6040516104c39190612c52565b60405180910390f35b3480156104d857600080fd5b506104e1610da5565b6040516104ee9190612dae565b60405180910390f35b34801561050357600080fd5b5061051e60048036038101906105199190612f9a565b610daa565b60405161052b9190612dae565b60405180910390f35b34801561054057600080fd5b50610549610e62565b005b34801561055757600080fd5b50610572600480360381019061056d9190612ff3565b610e76565b005b34801561058057600080fd5b5061059b60048036038101906105969190612caa565b610e9b565b005b3480156105a957600080fd5b506105c460048036038101906105bf91906130b9565b610ee7565b005b3480156105d257600080fd5b506105db610f95565b6040516105e89190612dae565b60405180910390f35b3480156105fd57600080fd5b50610606610fa1565b6040516106139190612d18565b60405180910390f35b34801561062857600080fd5b50610631610fcb565b60405161063e9190612c52565b60405180910390f35b610661600480360381019061065c9190612caa565b61105d565b005b34801561066f57600080fd5b5061068a60048036038101906106859190613119565b6111da565b005b34801561069857600080fd5b506106b360048036038101906106ae91906131fa565b6111f0565b005b3480156106c157600080fd5b506106dc60048036038101906106d79190612f9a565b611252565b6040516106e9919061328c565b60405180910390f35b3480156106fe57600080fd5b5061071960048036038101906107149190612ff3565b6112a8565b005b34801561072757600080fd5b50610742600480360381019061073d9190612caa565b6112cd565b60405161074f9190612c52565b60405180910390f35b610772600480360381019061076d91906132a7565b611335565b005b34801561078057600080fd5b5061079b600480360381019061079691906132d4565b61157f565b6040516107a89190612b9e565b60405180910390f35b3480156107bd57600080fd5b506107c6611613565b6040516107d39190612b9e565b60405180910390f35b3480156107e857600080fd5b5061080360048036038101906107fe9190612f9a565b611626565b005b34801561081157600080fd5b5061082c60048036038101906108279190612f51565b6116aa565b005b6000610839826116cc565b9050919050565b60606000805461084f90613343565b80601f016020809104026020016040519081016040528092919081815260200182805461087b90613343565b80156108c85780601f1061089d576101008083540402835291602001916108c8565b820191906000526020600020905b8154815290600101906020018083116108ab57829003601f168201915b5050505050905090565b60006108dd82611746565b6004600083815260200190815260200160002060009054906101000a900473ffffffffffffffffffffffffffffffffffffffff169050919050565b600061092382610c65565b90508073ffffffffffffffffffffffffffffffffffffffff168373ffffffffffffffffffffffffffffffffffffffff161415610994576040517f08c379a000000000000000000000000000000000000000000000000000000000815260040161098b906133e7565b60405180910390fd5b8073ffffffffffffffffffffffffffffffffffffffff166109b3611791565b73ffffffffffffffffffffffffffffffffffffffff1614806109e257506109e1816109dc611791565b61157f565b5b610a21576040517f08c379a0000000000000000000000000000000000000000000000000000000008152600401610a1890613479565b60405180910390fd5b610a2b8383611799565b505050565b6000600880549050905090565b610a4e610a48611791565b82611852565b610a8d576040517f08c379a0000000000000000000000000000000000000000000000000000000008152600401610a849061350b565b60405180910390fd5b610a988383836118e7565b505050565b600e60009054906101000a900460ff1681565b6000610abb83610daa565b8210610afc576040517f08c379a0000000000000000000000000000000000000000000000000000000008152600401610af39061359d565b60405180910390fd5b600660008473ffffffffffffffffffffffffffffffffffffffff1673ffffffffffffffffffffffffffffffffffffffff168152602001908152602001600020600083815260200190815260200160002054905092915050565b61271081565b610b63611b4e565b60004790503373ffffffffffffffffffffffffffffffffffffffff166108fc829081150290604051600060405180830381858888f19350505050158015610bae573d6000803e3d6000fd5b5050565b610bcd838383604051806020016040528060008152506111f0565b505050565b6000610bdc610a30565b8210610c1d576040517f08c379a0000000000000000000000000000000000000000000000000000000008152600401610c149061362f565b60405180910390fd5b60088281548110610c3157610c3061364f565b5b90600052602060002001549050919050565b610c4b611b4e565b80600d9080519060200190610c61929190612a47565b5050565b6000806002600084815260200190815260200160002060009054906101000a900473ffffffffffffffffffffffffffffffffffffffff169050600073ffffffffffffffffffffffffffffffffffffffff168173ffffffffffffffffffffffffffffffffffffffff161415610d0e576040517f08c379a0000000000000000000000000000000000000000000000000000000008152600401610d05906136ca565b60405180910390fd5b80915050919050565b600b8054610d2490613343565b80601f0160208091040260200160405190810160405280929190818152602001828054610d5090613343565b8015610d9d5780601f10610d7257610100808354040283529160200191610d9d565b820191906000526020600020905b815481529060010190602001808311610d8057829003601f168201915b505050505081565b600581565b60008073ffffffffffffffffffffffffffffffffffffffff168273ffffffffffffffffffffffffffffffffffffffff161415610e1b576040517f08c379a0000000000000000000000000000000000000000000000000000000008152600401610e129061375c565b60405180910390fd5b600360008373ffffffffffffffffffffffffffffffffffffffff1673ffffffffffffffffffffffffffffffffffffffff168152602001908152602001600020549050919050565b610e6a611b4e565b610e746000611bcc565b565b610e7e611b4e565b80600e60006101000a81548160ff02191690831515021790555050565b610ea3611b4e565b6000610ead610a30565b905060005b82811015610ee257610ecf338284610eca91906137ab565b611c92565b8080610eda90613801565b915050610eb2565b505050565b610eef611b4e565b60005b83839050811015610f8f5781600f6000868685818110610f1557610f1461364f565b5b9050602002016020810190610f2a9190612f9a565b73ffffffffffffffffffffffffffffffffffffffff1673ffffffffffffffffffffffffffffffffffffffff16815260200190815260200160002060006101000a81548160ff021916908360ff1602179055508080610f8790613801565b915050610ef2565b50505050565b6701b4fbd92b5f800081565b6000600a60009054906101000a900473ffffffffffffffffffffffffffffffffffffffff16905090565b606060018054610fda90613343565b80601f016020809104026020016040519081016040528092919081815260200182805461100690613343565b80156110535780601f1061102857610100808354040283529160200191611053565b820191906000526020600020905b81548152906001019060200180831161103657829003601f168201915b5050505050905090565b6000611067610a30565b9050600c60009054906101000a900460ff166110b8576040517f08c379a00000000000000000000000000000000000000000000000000000000081526004016110af906138bc565b60405180910390fd5b60058211156110fc576040517f08c379a00000000000000000000000000000000000000000000000000000000081526004016110f390613928565b60405180910390fd5b612710828261110b91906137ab565b111561114c576040517f08c379a000000000000000000000000000000000000000000000000000000000815260040161114390613994565b60405180910390fd5b34826701b4fbd92b5f800061116191906139b4565b11156111a2576040517f08c379a000000000000000000000000000000000000000000000000000000000815260040161119990613a5a565b60405180910390fd5b60005b828110156111d5576111c23382846111bd91906137ab565b611c92565b80806111cd90613801565b9150506111a5565b505050565b6111ec6111e5611791565b8383611cb0565b5050565b6112016111fb611791565b83611852565b611240576040517f08c379a00000000000000000000000000000000000000000000000000000000081526004016112379061350b565b60405180910390fd5b61124c84848484611e1d565b50505050565b6000600f60008373ffffffffffffffffffffffffffffffffffffffff1673ffffffffffffffffffffffffffffffffffffffff16815260200190815260200160002060009054906101000a900460ff169050919050565b6112b0611b4e565b80600c60006101000a81548160ff02191690831515021790555050565b60606112d882611746565b60006112e2611e79565b90506000815111611302576040518060200160405280600081525061132d565b8061130c84611f0b565b60405160200161131d929190613ab6565b6040516020818303038152906040525b915050919050565b600061133f610a30565b9050600e60009054906101000a900460ff16611390576040517f08c379a000000000000000000000000000000000000000000000000000000000815260040161138790613b26565b60405180910390fd5b600f60003373ffffffffffffffffffffffffffffffffffffffff1673ffffffffffffffffffffffffffffffffffffffff16815260200190815260200160002060009054906101000a900460ff1660ff168260ff161115611425576040517f08c379a000000000000000000000000000000000000000000000000000000000815260040161141c90613bb8565b60405180910390fd5b6127108260ff168261143791906137ab565b1115611478576040517f08c379a000000000000000000000000000000000000000000000000000000000815260040161146f90613994565b60405180910390fd5b348260ff166701b4fbd92b5f800061149091906139b4565b11156114d1576040517f08c379a00000000000000000000000000000000000000000000000000000000081526004016114c890613a5a565b60405180910390fd5b81600f60003373ffffffffffffffffffffffffffffffffffffffff1673ffffffffffffffffffffffffffffffffffffffff16815260200190815260200160002060008282829054906101000a900460ff1661152c9190613bd8565b92506101000a81548160ff021916908360ff16021790555060005b8260ff1681101561157a5761156733828461156291906137ab565b611c92565b808061157290613801565b915050611547565b505050565b6000600560008473ffffffffffffffffffffffffffffffffffffffff1673ffffffffffffffffffffffffffffffffffffffff16815260200190815260200160002060008373ffffffffffffffffffffffffffffffffffffffff1673ffffffffffffffffffffffffffffffffffffffff16815260200190815260200160002060009054906101000a900460ff16905092915050565b600c60009054906101000a900460ff1681565b61162e611b4e565b600073ffffffffffffffffffffffffffffffffffffffff168173ffffffffffffffffffffffffffffffffffffffff16141561169e576040517f08c379a000000000000000000000000000000000000000000000000000000000815260040161169590613c7e565b60405180910390fd5b6116a781611bcc565b50565b6116b2611b4e565b80600b90805190602001906116c8929190612a47565b5050565b60007f780e9d63000000000000000000000000000000000000000000000000000000007bffffffffffffffffffffffffffffffffffffffffffffffffffffffff1916827bffffffffffffffffffffffffffffffffffffffffffffffffffffffff1916148061173f575061173e8261206c565b5b9050919050565b61174f8161214e565b61178e576040517f08c379a0000000000000000000000000000000000000000000000000000000008152600401611785906136ca565b60405180910390fd5b50565b600033905090565b816004600083815260200190815260200160002060006101000a81548173ffffffffffffffffffffffffffffffffffffffff021916908373ffffffffffffffffffffffffffffffffffffffff160217905550808273ffffffffffffffffffffffffffffffffffffffff1661180c83610c65565b73ffffffffffffffffffffffffffffffffffffffff167f8c5be1e5ebec7d5bd14f71427d1e84f3dd0314c0f7b2291e5b200ac8c7c3b92560405160405180910390a45050565b60008061185e83610c65565b90508073ffffffffffffffffffffffffffffffffffffffff168473ffffffffffffffffffffffffffffffffffffffff1614806118a0575061189f818561157f565b5b806118de57508373ffffffffffffffffffffffffffffffffffffffff166118c6846108d2565b73ffffffffffffffffffffffffffffffffffffffff16145b91505092915050565b8273ffffffffffffffffffffffffffffffffffffffff1661190782610c65565b73ffffffffffffffffffffffffffffffffffffffff161461195d576040517f08c379a000000000000000000000000000000000000000000000000000000000815260040161195490613d10565b60405180910390fd5b600073ffffffffffffffffffffffffffffffffffffffff168273ffffffffffffffffffffffffffffffffffffffff1614156119cd576040517f08c379a00000000000000000000000000000000000000000000000000000000081526004016119c490613da2565b60405180910390fd5b6119d88383836121ba565b6119e3600082611799565b6001600360008573ffffffffffffffffffffffffffffffffffffffff1673ffffffffffffffffffffffffffffffffffffffff1681526020019081526020016000206000828254611a339190613dc2565b925050819055506001600360008473ffffffffffffffffffffffffffffffffffffffff1673ffffffffffffffffffffffffffffffffffffffff1681526020019081526020016000206000828254611a8a91906137ab565b92505081905550816002600083815260200190815260200160002060006101000a81548173ffffffffffffffffffffffffffffffffffffffff021916908373ffffffffffffffffffffffffffffffffffffffff160217905550808273ffffffffffffffffffffffffffffffffffffffff168473ffffffffffffffffffffffffffffffffffffffff167fddf252ad1be2c89b69c2b068fc378daa952ba7f163c4a11628f55a4df523b3ef60405160405180910390a4611b498383836121ca565b505050565b611b56611791565b73ffffffffffffffffffffffffffffffffffffffff16611b74610fa1565b73ffffffffffffffffffffffffffffffffffffffff1614611bca576040517f08c379a0000000000000000000000000000000000000000000000000000000008152600401611bc190613e42565b60405180910390fd5b565b6000600a60009054906101000a900473ffffffffffffffffffffffffffffffffffffffff16905081600a60006101000a81548173ffffffffffffffffffffffffffffffffffffffff021916908373ffffffffffffffffffffffffffffffffffffffff1602179055508173ffffffffffffffffffffffffffffffffffffffff168173ffffffffffffffffffffffffffffffffffffffff167f8be0079c531659141344cd1fd0a4f28419497f9722a3daafe3b4186f6b6457e060405160405180910390a35050565b611cac8282604051806020016040528060008152506121cf565b5050565b8173ffffffffffffffffffffffffffffffffffffffff168373ffffffffffffffffffffffffffffffffffffffff161415611d1f576040517f08c379a0000000000000000000000000000000000000000000000000000000008152600401611d1690613eae565b60405180910390fd5b80600560008573ffffffffffffffffffffffffffffffffffffffff1673ffffffffffffffffffffffffffffffffffffffff16815260200190815260200160002060008473ffffffffffffffffffffffffffffffffffffffff1673ffffffffffffffffffffffffffffffffffffffff16815260200190815260200160002060006101000a81548160ff0219169083151502179055508173ffffffffffffffffffffffffffffffffffffffff168373ffffffffffffffffffffffffffffffffffffffff167f17307eab39ab6107e8899845ad3d59bd9653f200f220920489ca2b5937696c3183604051611e109190612b9e565b60405180910390a3505050565b611e288484846118e7565b611e348484848461222a565b611e73576040517f08c379a0000000000000000000000000000000000000000000000000000000008152600401611e6a90613f40565b60405180910390fd5b50505050565b6060600d8054611e8890613343565b80601f0160208091040260200160405190810160405280929190818152602001828054611eb490613343565b8015611f015780601f10611ed657610100808354040283529160200191611f01565b820191906000526020600020905b815481529060010190602001808311611ee457829003601f168201915b5050505050905090565b60606000821415611f53576040518060400160405280600181526020017f30000000000000000000000000000000000000000000000000000000000000008152509050612067565b600082905060005b60008214611f85578080611f6e90613801565b915050600a82611f7e9190613f8f565b9150611f5b565b60008167ffffffffffffffff811115611fa157611fa0612e26565b5b6040519080825280601f01601f191660200182016040528015611fd35781602001600182028036833780820191505090505b5090505b6000851461206057600182611fec9190613dc2565b9150600a85611ffb9190613fc0565b603061200791906137ab565b60f81b81838151811061201d5761201c61364f565b5b60200101907effffffffffffffffffffffffffffffffffffffffffffffffffffffffffffff1916908160001a905350600a856120599190613f8f565b9450611fd7565b8093505050505b919050565b60007f80ac58cd000000000000000000000000000000000000000000000000000000007bffffffffffffffffffffffffffffffffffffffffffffffffffffffff1916827bffffffffffffffffffffffffffffffffffffffffffffffffffffffff1916148061213757507f5b5e139f000000000000000000000000000000000000000000000000000000007bffffffffffffffffffffffffffffffffffffffffffffffffffffffff1916827bffffffffffffffffffffffffffffffffffffffffffffffffffffffff1916145b806121475750612146826123c1565b5b9050919050565b60008073ffffffffffffffffffffffffffffffffffffffff166002600084815260200190815260200160002060009054906101000a900473ffffffffffffffffffffffffffffffffffffffff1673ffffffffffffffffffffffffffffffffffffffff1614159050919050565b6121c583838361242b565b505050565b505050565b6121d9838361253f565b6121e6600084848461222a565b612225576040517f08c379a000000000000000000000000000000000000000000000000000000000815260040161221c90613f40565b60405180910390fd5b505050565b600061224b8473ffffffffffffffffffffffffffffffffffffffff16612719565b156123b4578373ffffffffffffffffffffffffffffffffffffffff1663150b7a02612274611791565b8786866040518563ffffffff1660e01b81526004016122969493929190614046565b602060405180830381600087803b1580156122b057600080fd5b505af19250505080156122e157506040513d601f19601f820116820180604052508101906122de91906140a7565b60015b612364573d8060008114612311576040519150601f19603f3d011682016040523d82523d6000602084013e612316565b606091505b5060008151141561235c576040517f08c379a000000000000000000000000000000000000000000000000000000000815260040161235390613f40565b60405180910390fd5b805181602001fd5b63150b7a0260e01b7bffffffffffffffffffffffffffffffffffffffffffffffffffffffff1916817bffffffffffffffffffffffffffffffffffffffffffffffffffffffff1916149150506123b9565b600190505b949350505050565b60007f01ffc9a7000000000000000000000000000000000000000000000000000000007bffffffffffffffffffffffffffffffffffffffffffffffffffffffff1916827bffffffffffffffffffffffffffffffffffffffffffffffffffffffff1916149050919050565b61243683838361273c565b600073ffffffffffffffffffffffffffffffffffffffff168373ffffffffffffffffffffffffffffffffffffffff1614156124795761247481612741565b6124b8565b8173ffffffffffffffffffffffffffffffffffffffff168373ffffffffffffffffffffffffffffffffffffffff16146124b7576124b6838261278a565b5b5b600073ffffffffffffffffffffffffffffffffffffffff168273ffffffffffffffffffffffffffffffffffffffff1614156124fb576124f6816128f7565b61253a565b8273ffffffffffffffffffffffffffffffffffffffff168273ffffffffffffffffffffffffffffffffffffffff16146125395761253882826129c8565b5b5b505050565b600073ffffffffffffffffffffffffffffffffffffffff168273ffffffffffffffffffffffffffffffffffffffff1614156125af576040517f08c379a00000000000000000000000000000000000000000000000000000000081526004016125a690614120565b60405180910390fd5b6125b88161214e565b156125f8576040517f08c379a00000000000000000000000000000000000000000000000000000000081526004016125ef9061418c565b60405180910390fd5b612604600083836121ba565b6001600360008473ffffffffffffffffffffffffffffffffffffffff1673ffffffffffffffffffffffffffffffffffffffff168152602001908152602001600020600082825461265491906137ab565b92505081905550816002600083815260200190815260200160002060006101000a81548173ffffffffffffffffffffffffffffffffffffffff021916908373ffffffffffffffffffffffffffffffffffffffff160217905550808273ffffffffffffffffffffffffffffffffffffffff16600073ffffffffffffffffffffffffffffffffffffffff167fddf252ad1be2c89b69c2b068fc378daa952ba7f163c4a11628f55a4df523b3ef60405160405180910390a4612715600083836121ca565b5050565b6000808273ffffffffffffffffffffffffffffffffffffffff163b119050919050565b505050565b6008805490506009600083815260200190815260200160002081905550600881908060018154018082558091505060019003906000526020600020016000909190919091505550565b6000600161279784610daa565b6127a19190613dc2565b9050600060076000848152602001908152602001600020549050818114612886576000600660008673ffffffffffffffffffffffffffffffffffffffff1673ffffffffffffffffffffffffffffffffffffffff168152602001908152602001600020600084815260200190815260200160002054905080600660008773ffffffffffffffffffffffffffffffffffffffff1673ffffffffffffffffffffffffffffffffffffffff168152602001908152602001600020600084815260200190815260200160002081905550816007600083815260200190815260200160002081905550505b6007600084815260200190815260200160002060009055600660008573ffffffffffffffffffffffffffffffffffffffff1673ffffffffffffffffffffffffffffffffffffffff16815260200190815260200160002060008381526020019081526020016000206000905550505050565b6000600160088054905061290b9190613dc2565b905060006009600084815260200190815260200160002054905060006008838154811061293b5761293a61364f565b5b90600052602060002001549050806008838154811061295d5761295c61364f565b5b9060005260206000200181905550816009600083815260200190815260200160002081905550600960008581526020019081526020016000206000905560088054806129ac576129ab6141ac565b5b6001900381819060005260206000200160009055905550505050565b60006129d383610daa565b905081600660008573ffffffffffffffffffffffffffffffffffffffff1673ffffffffffffffffffffffffffffffffffffffff168152602001908152602001600020600083815260200190815260200160002081905550806007600084815260200190815260200160002081905550505050565b828054612a5390613343565b90600052602060002090601f016020900481019282612a755760008555612abc565b82601f10612a8e57805160ff1916838001178555612abc565b82800160010185558215612abc579182015b82811115612abb578251825591602001919060010190612aa0565b5b509050612ac99190612acd565b5090565b5b80821115612ae6576000816000905550600101612ace565b5090565b6000604051905090565b600080fd5b600080fd5b60007fffffffff0000000000000000000000000000000000000000000000000000000082169050919050565b612b3381612afe565b8114612b3e57600080fd5b50565b600081359050612b5081612b2a565b92915050565b600060208284031215612b6c57612b6b612af4565b5b6000612b7a84828501612b41565b91505092915050565b60008115159050919050565b612b9881612b83565b82525050565b6000602082019050612bb36000830184612b8f565b92915050565b600081519050919050565b600082825260208201905092915050565b60005b83811015612bf3578082015181840152602081019050612bd8565b83811115612c02576000848401525b50505050565b6000601f19601f8301169050919050565b6000612c2482612bb9565b612c2e8185612bc4565b9350612c3e818560208601612bd5565b612c4781612c08565b840191505092915050565b60006020820190508181036000830152612c6c8184612c19565b905092915050565b6000819050919050565b612c8781612c74565b8114612c9257600080fd5b50565b600081359050612ca481612c7e565b92915050565b600060208284031215612cc057612cbf612af4565b5b6000612cce84828501612c95565b91505092915050565b600073ffffffffffffffffffffffffffffffffffffffff82169050919050565b6000612d0282612cd7565b9050919050565b612d1281612cf7565b82525050565b6000602082019050612d2d6000830184612d09565b92915050565b612d3c81612cf7565b8114612d4757600080fd5b50565b600081359050612d5981612d33565b92915050565b60008060408385031215612d7657612d75612af4565b5b6000612d8485828601612d4a565b9250506020612d9585828601612c95565b9150509250929050565b612da881612c74565b82525050565b6000602082019050612dc36000830184612d9f565b92915050565b600080600060608486031215612de257612de1612af4565b5b6000612df086828701612d4a565b9350506020612e0186828701612d4a565b9250506040612e1286828701612c95565b9150509250925092565b600080fd5b600080fd5b7f4e487b7100000000000000000000000000000000000000000000000000000000600052604160045260246000fd5b612e5e82612c08565b810181811067ffffffffffffffff82111715612e7d57612e7c612e26565b5b80604052505050565b6000612e90612aea565b9050612e9c8282612e55565b919050565b600067ffffffffffffffff821115612ebc57612ebb612e26565b5b612ec582612c08565b9050602081019050919050565b82818337600083830152505050565b6000612ef4612eef84612ea1565b612e86565b905082815260208101848484011115612f1057612f0f612e21565b5b612f1b848285612ed2565b509392505050565b600082601f830112612f3857612f37612e1c565b5b8135612f48848260208601612ee1565b91505092915050565b600060208284031215612f6757612f66612af4565b5b600082013567ffffffffffffffff811115612f8557612f84612af9565b5b612f9184828501612f23565b91505092915050565b600060208284031215612fb057612faf612af4565b5b6000612fbe84828501612d4a565b91505092915050565b612fd081612b83565b8114612fdb57600080fd5b50565b600081359050612fed81612fc7565b92915050565b60006020828403121561300957613008612af4565b5b600061301784828501612fde565b91505092915050565b600080fd5b600080fd5b60008083601f8401126130405761303f612e1c565b5b8235905067ffffffffffffffff81111561305d5761305c613020565b5b60208301915083602082028301111561307957613078613025565b5b9250929050565b600060ff82169050919050565b61309681613080565b81146130a157600080fd5b50565b6000813590506130b38161308d565b92915050565b6000806000604084860312156130d2576130d1612af4565b5b600084013567ffffffffffffffff8111156130f0576130ef612af9565b5b6130fc8682870161302a565b9350935050602061310f868287016130a4565b9150509250925092565b600080604083850312156131305761312f612af4565b5b600061313e85828601612d4a565b925050602061314f85828601612fde565b9150509250929050565b600067ffffffffffffffff82111561317457613173612e26565b5b61317d82612c08565b9050602081019050919050565b600061319d61319884613159565b612e86565b9050828152602081018484840111156131b9576131b8612e21565b5b6131c4848285612ed2565b509392505050565b600082601f8301126131e1576131e0612e1c565b5b81356131f184826020860161318a565b91505092915050565b6000806000806080858703121561321457613213612af4565b5b600061322287828801612d4a565b945050602061323387828801612d4a565b935050604061324487828801612c95565b925050606085013567ffffffffffffffff81111561326557613264612af9565b5b613271878288016131cc565b91505092959194509250565b61328681613080565b82525050565b60006020820190506132a1600083018461327d565b92915050565b6000602082840312156132bd576132bc612af4565b5b60006132cb848285016130a4565b91505092915050565b600080604083850312156132eb576132ea612af4565b5b60006132f985828601612d4a565b925050602061330a85828601612d4a565b9150509250929050565b7f4e487b7100000000000000000000000000000000000000000000000000000000600052602260045260246000fd5b6000600282049050600182168061335b57607f821691505b6020821081141561336f5761336e613314565b5b50919050565b7f4552433732313a20617070726f76616c20746f2063757272656e74206f776e6560008201527f7200000000000000000000000000000000000000000000000000000000000000602082015250565b60006133d1602183612bc4565b91506133dc82613375565b604082019050919050565b60006020820190508181036000830152613400816133c4565b9050919050565b7f4552433732313a20617070726f76652063616c6c6572206973206e6f7420746f60008201527f6b656e206f776e6572206e6f7220617070726f76656420666f7220616c6c0000602082015250565b6000613463603e83612bc4565b915061346e82613407565b604082019050919050565b6000602082019050818103600083015261349281613456565b9050919050565b7f4552433732313a2063616c6c6572206973206e6f7420746f6b656e206f776e6560008201527f72206e6f7220617070726f766564000000000000000000000000000000000000602082015250565b60006134f5602e83612bc4565b915061350082613499565b604082019050919050565b60006020820190508181036000830152613524816134e8565b9050919050565b7f455243373231456e756d657261626c653a206f776e657220696e646578206f7560008201527f74206f6620626f756e6473000000000000000000000000000000000000000000602082015250565b6000613587602b83612bc4565b91506135928261352b565b604082019050919050565b600060208201905081810360008301526135b68161357a565b9050919050565b7f455243373231456e756d657261626c653a20676c6f62616c20696e646578206f60008201527f7574206f6620626f756e64730000000000000000000000000000000000000000602082015250565b6000613619602c83612bc4565b9150613624826135bd565b604082019050919050565b600060208201905081810360008301526136488161360c565b9050919050565b7f4e487b7100000000000000000000000000000000000000000000000000000000600052603260045260246000fd5b7f4552433732313a20696e76616c696420746f6b656e2049440000000000000000600082015250565b60006136b4601883612bc4565b91506136bf8261367e565b602082019050919050565b600060208201905081810360008301526136e3816136a7565b9050919050565b7f4552433732313a2061646472657373207a65726f206973206e6f74206120766160008201527f6c6964206f776e65720000000000000000000000000000000000000000000000602082015250565b6000613746602983612bc4565b9150613751826136ea565b604082019050919050565b6000602082019050818103600083015261377581613739565b9050919050565b7f4e487b7100000000000000000000000000000000000000000000000000000000600052601160045260246000fd5b60006137b682612c74565b91506137c183612c74565b9250827fffffffffffffffffffffffffffffffffffffffffffffffffffffffffffffffff038211156137f6576137f561377c565b5b828201905092915050565b600061380c82612c74565b91507fffffffffffffffffffffffffffffffffffffffffffffffffffffffffffffffff82141561383f5761383e61377c565b5b600182019050919050565b7f53616c65206d7573742062652061637469766520746f206d696e7420746f6b6560008201527f6e73000000000000000000000000000000000000000000000000000000000000602082015250565b60006138a6602283612bc4565b91506138b18261384a565b604082019050919050565b600060208201905081810360008301526138d581613899565b9050919050565b7f4578636565646564206d617820746f6b656e2070757263686173650000000000600082015250565b6000613912601b83612bc4565b915061391d826138dc565b602082019050919050565b6000602082019050818103600083015261394181613905565b9050919050565b7f507572636861736520776f756c6420657863656564206d617820746f6b656e73600082015250565b600061397e602083612bc4565b915061398982613948565b602082019050919050565b600060208201905081810360008301526139ad81613971565b9050919050565b60006139bf82612c74565b91506139ca83612c74565b9250817fffffffffffffffffffffffffffffffffffffffffffffffffffffffffffffffff0483118215151615613a0357613a0261377c565b5b828202905092915050565b7f45746865722076616c75652073656e74206973206e6f7420636f727265637400600082015250565b6000613a44601f83612bc4565b9150613a4f82613a0e565b602082019050919050565b60006020820190508181036000830152613a7381613a37565b9050919050565b600081905092915050565b6000613a9082612bb9565b613a9a8185613a7a565b9350613aaa818560208601612bd5565b80840191505092915050565b6000613ac28285613a85565b9150613ace8284613a85565b91508190509392505050565b7f416c6c6f77206c697374206973206e6f74206163746976650000000000000000600082015250565b6000613b10601883612bc4565b9150613b1b82613ada565b602082019050919050565b60006020820190508181036000830152613b3f81613b03565b9050919050565b7f4578636565646564206d617820617661696c61626c6520746f2070757263686160008201527f7365000000000000000000000000000000000000000000000000000000000000602082015250565b6000613ba2602283612bc4565b9150613bad82613b46565b604082019050919050565b60006020820190508181036000830152613bd181613b95565b9050919050565b6000613be382613080565b9150613bee83613080565b925082821015613c0157613c0061377c565b5b828203905092915050565b7f4f776e61626c653a206e6577206f776e657220697320746865207a65726f206160008201527f6464726573730000000000000000000000000000000000000000000000000000602082015250565b6000613c68602683612bc4565b9150613c7382613c0c565b604082019050919050565b60006020820190508181036000830152613c9781613c5b565b9050919050565b7f4552433732313a207472616e736665722066726f6d20696e636f72726563742060008201527f6f776e6572000000000000000000000000000000000000000000000000000000602082015250565b6000613cfa602583612bc4565b9150613d0582613c9e565b604082019050919050565b60006020820190508181036000830152613d2981613ced565b9050919050565b7f4552433732313a207472616e7366657220746f20746865207a65726f2061646460008201527f7265737300000000000000000000000000000000000000000000000000000000602082015250565b6000613d8c602483612bc4565b9150613d9782613d30565b604082019050919050565b60006020820190508181036000830152613dbb81613d7f565b9050919050565b6000613dcd82612c74565b9150613dd883612c74565b925082821015613deb57613dea61377c565b5b828203905092915050565b7f4f776e61626c653a2063616c6c6572206973206e6f7420746865206f776e6572600082015250565b6000613e2c602083612bc4565b9150613e3782613df6565b602082019050919050565b60006020820190508181036000830152613e5b81613e1f565b9050919050565b7f4552433732313a20617070726f766520746f2063616c6c657200000000000000600082015250565b6000613e98601983612bc4565b9150613ea382613e62565b602082019050919050565b60006020820190508181036000830152613ec781613e8b565b9050919050565b7f4552433732313a207472616e7366657220746f206e6f6e20455243373231526560008201527f63656976657220696d706c656d656e7465720000000000000000000000000000602082015250565b6000613f2a603283612bc4565b9150613f3582613ece565b604082019050919050565b60006020820190508181036000830152613f5981613f1d565b9050919050565b7f4e487b7100000000000000000000000000000000000000000000000000000000600052601260045260246000fd5b6000613f9a82612c74565b9150613fa583612c74565b925082613fb557613fb4613f60565b5b828204905092915050565b6000613fcb82612c74565b9150613fd683612c74565b925082613fe657613fe5613f60565b5b828206905092915050565b600081519050919050565b600082825260208201905092915050565b600061401882613ff1565b6140228185613ffc565b9350614032818560208601612bd5565b61403b81612c08565b840191505092915050565b600060808201905061405b6000830187612d09565b6140686020830186612d09565b6140756040830185612d9f565b8181036060830152614087818461400d565b905095945050505050565b6000815190506140a181612b2a565b92915050565b6000602082840312156140bd576140bc612af4565b5b60006140cb84828501614092565b91505092915050565b7f4552433732313a206d696e7420746f20746865207a65726f2061646472657373600082015250565b600061410a602083612bc4565b9150614115826140d4565b602082019050919050565b60006020820190508181036000830152614139816140fd565b9050919050565b7f4552433732313a20746f6b656e20616c7265616479206d696e74656400000000600082015250565b6000614176601c83612bc4565b915061418182614140565b602082019050919050565b600060208201905081810360008301526141a581614169565b9050919050565b7f4e487b7100000000000000000000000000000000000000000000000000000000600052603160045260246000fdfea26469706673582212201a1f31f51af625614ec5a03cc66b1e2e9997984d8bc57a90742ea1c93f16a86a64736f6c63430008090033",
  "linkReferences": {},
  "deployedLinkReferences": {}
}